{"abi":[{"type":"function","name":"plonkVerifier","inputs":[],"outputs":[{"name":"","type":"address","internalType":"contract PlonkVerifier"}],"stateMutability":"view"},{"type":"function","name":"proofs","inputs":[{"name":"","type":"bytes32","internalType":"bytes32"}],"outputs":[{"name":"","type":"bool","internalType":"bool"}],"stateMutability":"view"},{"type":"function","name":"verifyProof","inputs":[{"name":"_proof","type":"bytes","internalType":"bytes"},{"name":"_publicInputs","type":"bytes32[]","internalType":"bytes32[]"}],"outputs":[{"name":"","type":"bool","internalType":"bool"}],"stateMutability":"nonpayable"}],"bytecode":{"object":"0x608060405234801561001057600080fd5b5061041d806100206000396000f3fe608060405234801561001057600080fd5b50600436106100415760003560e01c8063444d95b014610046578063bbcb7c741461007e578063e4886e5014610091575b600080fd5b6100696100543660046101c3565b60016020526000908152604090205460ff1681565b60405190151581526020015b60405180910390f35b61006961008c3660046101f2565b6100bc565b6000546100a4906001600160a01b031681565b6040516001600160a01b039091168152602001610075565b6000808484846040516020016100d493929190610309565b60408051601f1981840301815291815281516020928301206000818152600190935291205490915060ff161561011d5760009081526001602052604090205460ff1690506101bc565b60008054604051633a94343960e21b81526001600160a01b039091169063ea50d0e4906101529089908990899060040161034a565b602060405180830381865afa15801561016f573d6000803e3d6000fd5b505050506040513d601f19601f8201168201806040525081019061019391906103c5565b905080156101b8576000828152600160208190526040909120805460ff191690911790555b9150505b9392505050565b6000602082840312156101d557600080fd5b5035919050565b634e487b7160e01b600052604160045260246000fd5b60008060006040848603121561020757600080fd5b833567ffffffffffffffff8082111561021f57600080fd5b818601915086601f83011261023357600080fd5b81358181111561024257600080fd5b6020888183860101111561025557600080fd5b80840196508195508088013593508284111561027057600080fd5b838801935088601f85011261028457600080fd5b8335915082821115610298576102986101dc565b8160051b604051601f19603f830116810181811086821117156102bd576102bd6101dc565b60405292835281830193508481018201928a8411156102db57600080fd5b948201945b838610156102f9578535855294820194938201936102e0565b8096505050505050509250925092565b828482376000818401818152835160209190828601845b8281101561033c57815184529284019290840190600101610320565b509198975050505050505050565b60408152826040820152828460608301376000606084830101526000601f19601f85011682016060810160206060858403016020860152818651808452608085019150602088019450600093505b808410156103b85784518252938201936001939093019290820190610398565b5098975050505050505050565b6000602082840312156103d757600080fd5b815180151581146101bc57600080fdfea26469706673582212201aa66d1d2341ef045f413d28558ede30b27ef8998263e3b782141e7d8428a54064736f6c63430008180033","linkReferences":{}},"methodIdentifiers":{"plonkVerifier()":"e4886e50","proofs(bytes32)":"444d95b0","verifyProof(bytes,bytes32[])":"bbcb7c74"},"id":22}